:020000040800F2
:1000000070100020A16D0008196E00081D6E000818
:10001000216E0008256E0008296E0008000000000F
:100020000000000000000000000000002D6E00082D
:10003000316E000800000000356E0008256C0008D5
:10004000396E00083D6E0008416E0008456E0008DC
:10005000496E00084D6E0008516E0008556E00088C
:10006000596E00085D6E0008616E0008656E00083C
:10007000696E00086D6E0008716E0008756E0008EC
:10008000796E00087D6E0008816E0008856E00089C
:10009000896E00088D6E0008916E0008956E00084C
:1000A000996E00089D6E0008A16E0008A56E0008FC
:1000B000A96E0008AD6E0008B16E0008B56E0008AC
:1000C000B96E0008BD6E0008C16E0008C56E00085C
:1000D000C96E0008316C0008CD6E0008D16E0008B2
:1000E000D56E00083B6C0008D96E0008DD6E000874
:1000F000E16E00082DE9F04F80460FF21C60A5B0BC
:1001000017461D46D0E90023CDE9122300200491B3
:100110000D900DF1500A6FF0004900E0E719002042
:10012000ADF8020012AB4FF0FF3239460DF102007C
:1001300001F08BF80446012C04DA3878441EA441FF
:10014000E443E40FBDF8020025280CBFA4F1010B25
:10015000A346BBF1010F0EDB3E4616F8011B0498C7
:10016000C0470028049000F0D2820D98401CBBF1DB
:10017000010B0D90F1D1BDF80200252807D1002018
:100180000790089009900A900B900C9005E00028C9
:10019000C4D10D98BDE240F0010017F8011F2029DD
:1001A000F9D023290DD02B2904D02D2906D03029B0
:1001B0000AD00CE040F0020080B2EEE740F004000C
:1001C000FAE740F00800F7E740F01000F4E72A29CA
:1001D0000ED12968296051F8042B2960002A0F925A
:1001E00004D5514240F004000F9180B27F1C11E011
:1001F00000210F9109E00F99494505D001EB8103DA
:1002000002EB430130390F917F1C3A78A2F13001A3
:100210000A29F0D339782E2903D04FF0FF310E91FF
:100220001DE017F8011F2A2907D1296829607F1CC2
:1002300051F8042B29600E9211E000210E9109E083
:100240000E99494505D001EB810302EB430130399A
:100250000E917F1C3A78A2F130010A29F0D3ADF853
:1002600040000FF2BC40397801F004F808B117F8EB
:10027000010B8DF842009DF84200682802BF3978D2
:100280006829622005D06C2804BF38786C2803D117
:1002900071208DF842007F1C14A8069017F8014BBE
:1002A000B4F125002AD01C3800F0CB80001F0228B2
:1002B00040F2C780133800F0EC80093800F0C180AC
:1002C000801E00F05381401E00F02C81401E022849
:1002D00040F2B780001F00F02581401F00F08280AF
:1002E000401E00F0D680401E2CD0C01E0BD0801EB9
:1002F00000F0CF80C01E00F0CC805AE125208DF8A0
:10030000500001205EE19DF842006C2828682860BA
:1003100014D050F8046B286005960E9C002C04D570
:10032000304600F0B3FF044606E022460021304686
:1003300000F0C8FF00B1841B089444E150F8042B7E
:1003400028602FE1296829603C2451F8040B2960BA
:100350000021CDE9020114A80590DDE90201069E05
:1003600011B908B90E9AB2B10206120FA0EB02122F
:100370003032D2B2631E3A2AA8BF2732000940EABF
:10038000017009099A5508BF00281C4603D0059A38
:10039000A3199A42E8D3A0190590C4F13C010E9824
:1003A0000891814209DA401A0A904FF6EF71BDF8C0
:1003B00040000840ADF8400005E1002840F103810D
:1003C0009DF8400000F01400102840F0FC800F98C9
:1003D000079A801A0A9A801A441A012CC0F2F380F4
:1003E0000A94F0E09DF8420062281AD0682806D0EE
:1003F0006A280CD06C281CD0712808D019E0286815
:10040000286050F8041B28600D980880DBE02868FD
:10041000286050F8042B28600D98C117C2E900012C
:10042000D1E02868286050F8041B28600D980870F7
:10043000C9E02868286050F8041B28600D980860FF
:10044000C1E02868C01D20F007022A60D2E900013F
:1004500008322A60CDE90201002902D507982D2132
:100460000AE0BDF84000810702D507982B2103E080
:10047000C00705D50798202100F80A10401C0790F6
:1004800014A8079908180590214602A800F090FBCF
:1004900099E09DF842006C280DD0712818BF6A2899
:1004A00009D12868C01D20F007022A60D2E90001A6
:1004B00008322A6005E02968296051F8040B296098
:1004C0000021CDE902019DF84200682803D1DDE951
:1004D000020180B20BE0622803D1DDE90201C0B263
:1004E00005E0742818BF7A2804D1DDE90201002153
:1004F000CDE902019DF8400000072ED5DDE902019B
:10050000002908BF002828D044F02000782824D1F2
:100510000798302100F80A10401C411C079100F890
:100520000A401AE09DF84200294600F0FDF8CDE9A6
:100530000201002902DA07982D210AE0BDF84000E7
:10054000810702D507982B2103E0C00705D507983E
:10055000202100F80A10401C079014A807990818D9
:100560000590214602A800F09FFA2CE09DF8420079
:100570006C2809D0012007902868286050F8041BD7
:1005800028608DF850101EE02868286001AA50F8F5
:10059000041B2860ADF804100020ADF806004FF0F1
:1005A000FF300E9002A9404600F0F5F800280AD569
:1005B000ADE025208DF85000012007901CB18AF88D
:1005C0000140022007900F980799401A0A99401A93
:1005D0000899401A0B99401A0999401A0C99441A23
:1005E0009DF84000400710D420208DF80000002620
:1005F00009E0012300AA02A9404600F001FE0028FC
:1006000040F08580761CA642F3DB079E0DF1500B6F
:100610000AE01BF8011B0498C0470028049076D01C
:100620000D98401C0D90761E002EF2D130208DF8D2
:1006300000004FF0000B0A9E09E0012300AA02A966
:10064000404600F0DDFD002861D10BF1010BB34500
:10065000F3DB089EDDF814B00AE01BF8011B0498D8
:10066000C0470028049052D00D98401C0D90761E73
:10067000002EF2D130208DF800004FF0000B0B9EC1
:1006800009E0012300AA02A9404600F0B9FD0028B4
:100690003DD10BF1010BB345F3DB05980899099E99
:1006A00001EB000B09E01BF8011B0498C047049004
:1006B00068B30D98401C0D90761E002EF3D13020AB
:1006C0008DF800004FF0000B0C9E08E0012300AAFB
:1006D00002A9404600F094FDC8B90BF1010BB345E7
:1006E000F4DB9DF8400040077FF519AD20208DF820
:1006F0000000002600E0761CA642BFF610AD0123E4
:1007000000AA02A9404600F07BFD0028F3D04FF07C
:10071000FF3025B0BDE8F08F0000000000000000B1
:10072000686A6C747A4C0000622826D068281DD054
:100730006A2808D06C2827D0712804D0742823D0C8
:100740007A280CD020E00868C01D20F0070008605F
:10075000D0E90023083008601946104670470A683F
:100760000A6052F8040B0A60002170470A680A60A8
:1007700052F8040B0A6000B20BE00A680A6052F8F3
:10078000040B0A6040B204E00A680A6052F8040BE5
:100790000A60C11770472DE9F44F0D4694B0D5F8A3
:1007A00030B0BBF1000F804648BF6FF0004B00F047
:1007B000B5FD696B401801900FF67420D0E9002355
:1007C000CDE9022395F83800400702D4019841286A
:1007D00006D240200DF1100A01904FF0000909E007
:1007E00000F0A2FD5FEA000AF7D14FF0FF3058E1B8
:1007F000ABEB040BBBF1010FC0F2CD801498018864
:1008000002AA0DF1010000F0E7FD0028044600F106
:10081000D5801498008810B9641E00F1CF80A345DC
:10082000C0F2B980686901992218914280F0A180D4
:10083000296AC5F834904042401AA969401A696A89
:10084000401AE969401AA96AA0EB010995F8380035
:10085000400710D420208DF80000002609E0012375
:1008600000AA2946404600F0CBFC002840F0A680B4
:10087000761C4E45F3DB6E6957460BE017F8011BFB
:10088000A868C0470028A86000F09880E86A401C6B
:10089000E862761E002EF1D130208DF8000000278E
:1008A0002E6A09E0012300AA2946404600F0A8FC70
:1008B000002840F083807F1CB742F3DBAE69EF680D
:1008C0000AE017F8011BA868C0470028A86075D087
:1008D000E86A401CE862761E002EF2D130208DF8C6
:1008E000000000276E6A08E0012300AA294640465E
:1008F00000F086FC002861D17F1CB742F4DBE86879
:10090000A969EE690F180AE017F8011BA868C0472B
:100910000028A86052D0E86A401CE862761E002ECB
:10092000F2D130208DF800000027AE6A08E00123E4
:1009300000AA2946404600F063FC00283ED17F1CF7
:10094000B742F4DB95F8380040070ED520208DF82B
:100950000000002607E0012300AA2946404600F0D7
:100960004FFC58BB761C4E45F5DB4FF00009C5F82F
:100970001490224668690DF10101504400F03AFDDF
:100980006869201868611498801C1490801E008883
:1009900000287FF42DAF686B6969401A296A401AF4
:1009A000A969401A696A401AE969401AA96A471A8E
:1009B00095F83800400710D400240CE04FF0FF39C0
:1009C00068E0A8682021C0470028A860F6D0E86A3F
:1009D000401CE862641CBC42F3DB6B69524629464A
:1009E000404600F00DFC0028E8D12C6A002609E002
:1009F000A8683021C0470028A860DFD0E86A401C02
:100A0000E862761CA642F3DBAB69EA6829464046F9
:100A100000F0F6FB0028D1D16C6A002609E0A86836
:100A20003021C0470028A860C8D0E86A401CE862AE
:100A3000761CA642F3DBE868A969EB690A18294627
:100A4000404600F0DDFB0028B8D1AC6A002609E082
:100A5000A8683021C0470028A860AFD0E86A401CD1
:100A6000E862761CA642F3DB95F8380040070DD506
:100A7000002409E0A8682021C0470028A8609DD074
:100A8000E86A401CE862641CBC42F3DBC5F81490C1
:100A9000C5F8349004A882451CBF504600F0E6FC1F
:100AA000484615B0BDE8F08F2DE9FA4E05460A46D6
:100AB0002F696F2A08BF082405D041F0200078284C
:100AC00014BF0A2410243C26D5E90001642A18BF6B
:100AD000692A81468A4605D1002903DAD9F100093D
:100AE0006AEB4A0ABAF1000F08BFB9F1000F0CD146
:100AF000286B50B9082C36D195F83800000732D54C
:100B000030203B2687F83B002DE0E317484651464E
:100B1000224600F0EBFCA4FB0023A9EB02023032DA
:100B2000D2B2A6F1010B3A2A5E4603DB9DF80030F3
:100B3000513B9A1881465FEA010A0BF8072008BF6B
:100B4000B9F1000F03D0E868F1198842DDD3082C11
:100B500009D195F83800000705D5F05D302802D09E
:100B6000761E3020F055C6F13C00A861F119E9600D
:100B7000296B884208DA081A28624FF6EF71288F2D
:100B800008402887BDE8F38E00290ED595F8381067
:100B900001F01401102908D1696B6A69891A2A6A5F
:100BA000891A0E1A012EA8BF2E62BDE8F38E00002E
:100BB0002DE9F24F04468EB0D4E90001CDE90201DF
:100BC00004AF9DF8380040F0200BBBF1610F0AD054
:100BD000206B002848BF062004D408BFBBF1670F74
:100BE00001D1012020636168C1F30A5040F2FF7215
:100BF00090421CD1080304BF2068002809D10320BB
:100C0000A0619DF8380061381A2836D30FF234619C
:100C100008E00320A0619DF8380061381A2829D324
:100C20000FF21861E068032200F0E4FBBEE1012846
:100C300016DA204600F0D1FC012811DB0025002047
:100C4000BBF1610F20D1E168302201F8012B4A1C71
:100C5000E2609DF83820612A0CBF782258220FE00C
:100C6000626840F2FE3161F31E52451A62604FF035
:100C7000FF30E5E70FF2C051D4E70FF2C451D1E7DE
:100C80000A706169891C616110B90026002584E140
:100C9000BBF1610F40F09780206BD4E900AB0028D6
:100CA0004CBF2126461CDDE902010022002300F092
:100CB000B5FC36B23ABF8BF00040CDE902A0CDE9D9
:100CC00002AB06F101082D1F8DF810200DF1110760
:100CD00000E0C71DB8F1010F33DBDDE9020100229E
:100CE000002300F0B3FC2CD21C2102A800F0C6FCAB
:100CF000DDE9020100F04AFDA8F10708B8F1010F93
:100D0000814609DB00F06EFD02460B46DDE902017B
:100D100000F080FDCDE90201F81D072105E009F092
:100D20000F0200F8012D4FEA2919B9F1010F01DB7B
:100D3000491EF4D5491E5CBF002200F8012DF9D5EB
:100D4000C7E70DF11100391AB142B8BF0E4636B2ED
:100D500030000DF111072FD4884206DA04A941189A
:100D600049780829A8BF0F2100DA002104AA8218B7
:100D700000E0761E12F80139401E8B42F9D00F298F
:100D800004D104A941184A78521C4A70002802D59F
:100D900004AF761C2D1D36B2701E0DD4C1190A7811
:100DA0003032D2B23A2A03DB9DF838303A3B9A18F7
:100DB000401E01F80129F2D5206B002840F1ED809A
:100DC000701E2063E9E0DDE902010022002300F04B
:100DD00025FC3CBF81F00041CDE902012DB247F274
:100DE000975068434B49DFF8309190FBF1F52DB2F5
:100DF000C5F1070ABAF1010F90461CDBDDE9026775
:100E00005FEACA7007D542464B463046394600F085
:100E1000C1FD06460F464046494642464B464FEA0C
:100E20006A0A00F0B7FDBAF1000F80468946E7D1A3
:100E3000CDE9026724E0CAF1000A0026374F14E02A
:100E40005FEACA7007D542464B463046394600F045
:100E5000A1FD06460F464046494642464B4600F035
:100E600099FD4FEA6A0A80468946BAF1000FE7D138
:100E7000DDE9020132463B4600F05EFECDE90201AB
:100E8000BBF1660F216BDFF898900CBF05F10A00EB
:100E900006204618142EA8BF132630208DF8100007
:100EA0000DF11107012E3DDBDDE9020100F084FCAC
:100EB00007F1080104220A23B0FBF3F303EB8307D5
:100EC000A0EB4700303001F8010C0A20B3FBF0F032
:100ED00000EB8007A3EB47033033521E01F8023DBD
:100EE000E9D1083E012E01F10807DBDBDDE9020153
:100EF00000F062FC00F080FC02460B46DDE90201D6
:100F000000F088FC00224B4600F044FDCDE90201D0
:100F1000CAE700BFA0860100000024400000F03FA7
:100F200084D797410DF11100381A0DF1110702E035
:100F3000401E6D1E7F1C39783029F9D0BBF1660F39
:100F400002D12DB2691C04E0BBF1650F0CBF012179
:100F50000021226B8E1836B2B042B8BF064636B2B8
:100F600031001AD4814204DAC85D3528A8BF39207F
:100F700000DA3020CA19521E00E0761E12F801393C
:100F8000491E8342F9D0392802D1C85D401CC8559A
:100F9000002902D57F1E761C6D1C2DB29DF83810DD
:100FA000009533B23A46204600F003F80FB0BDE892
:100FB000F08F2DE9F04786B006468A4690461D46DA
:100FC00000F003FF012D406A376B90F8009002DAC1
:100FD00001250FF274284AF02000BDF93840662838
:100FE00008BF641C12D0672876D114F1040F79DB96
:100FF000BC4277DA96F83800641C000702D4BD4280
:10100000B8BF2F4624B23F1B48BF002724B2F06868
:10101000B169012C21DA4A1C30230B54012F03DA69
:1010200096F83810090702D502F80090521CE742E2
:10103000B8BF7C4224B2E7196142AF42B26171622B
:10104000B8BF3D46B3692DB2F5612A46414618182E
:1010500000F0D0F9781BB062BBE00818A54216DAA0
:101060002A46414600F0C6F9B1696918601B012F94
:10107000B161706203DA96F83800000705D5F068B0
:1010800001F80090F069401CF061B762A1E02246CF
:10109000414600F0AFF9B06920182D1B012F03DA8B
:1010A00096F83810090703D5F16800F80190401C44
:1010B000B0612DB2AF42B8BF3D46F068B3692DB202
:1010C0002A4604EB0801181800F094F9B0692818B2
:1010D000B061781B70627CE0BAF1610F14D14FF0FF
:1010E000700A16E0BD4204DA96F83810090758BFB6
:1010F0002F467F1E48BF0027BAF1670F14BF4FF07D
:10110000450A4FF0650A04E0BAF1410F08BF4FF0FD
:10111000500AB169F06818F8013B0B544A1C012FC2
:1011200005DA96F83810090758BFB26115D502F8EC
:101130000090531C012FB3610FDB6D1E2DB2AF4227
:10114000B8BF3D462DB22A464146181800F052F964
:10115000B0692818B061781B7062F068B16909182D
:10116000200081F800A004D42B20487001F102086F
:1011700004E02D224A7001F102086442002502AF0A
:1011800008E00A2200A800F039FE019807F8010BD8
:101190006D1C009C21B20129F3DA022D06DA4AF017
:1011A0002000652804BF302008F8010B4DB930201D
:1011B00008F8010B07E06D1E02A8285C303008F823
:1011C000010B012DF7DAF068B1690818A8EB0000EF
:1011D000F06196F8380000F0140010280DD1706905
:1011E000B1690818716A0818F1690818B16A081815
:1011F000716B8842BCBF081A306206B0BDE8F08748
:10120000F8B504460D4616461F46002004E0E86A7D
:10121000401CE8627F1E002047B116F8011BA86839
:10122000A0470028A860F2D14FF0FF30F2BD0000C7
:1012300000000000000000006E616E004E414E0094
:10124000696E6600494E46003000F8B504460D460A
:1012500016461F4600F0F6FD3B463246294620461C
:1012600001B0BDE8F04000F008BE0268531C036006
:10127000117070470278C9B28A421AB11CBF10F8C7
:10128000012FF9E718BF00207047000000F10103AB
:10129000810704D010F8011B89B18107FAD10268D7
:1012A000B2F10131914311F0803F04BF50F8042F97
:1012B000F6E710F8011B11B110F8011BFBE7C01A8B
:1012C00070470000C9B2830706D0521E22D310F81F
:1012D000013B9942F7D11FE0083A13D302F104020F
:1012E00041EA012141EA014150F8043B121F21BFAC
:1012F0004B40A3F1013C2CEA030C1CF0803FF3D0DF
:10130000C9B2001F083210F8013B521E28BF91EAF3
:10131000030FF8D818BF0120401E704780B500F0B9
:1013200091FD012002BD000070B5054605F10F00DA
:10133000C408C046C046E400A54232D2082C04D2FC
:10134000082402E0083000F091F8224802681100F9
:101350000CD1011D0A6802B31368A34238BF111DE6
:10136000F8D310E01D68A5420DD2191D0B68002BA3
:10137000F8D11268011D00E0191D0B6893420CD0D2
:101380001D68A542F8D361B10D682A68A2F108036F
:10139000A3420AD26A680A600FE000F091FD0028BB
:1013A000D0D1C046C046002070BD63190B60121B2F
:1013B0006E685E600B681A602C60096800291DBFAA
:1013C0004A68002A091D00210160C046C04605F197
:1013D000080070BD4C0C002070B504460D46164642
:1013E00000F030FD324629462046BDE8704000F04E
:1013F00037BD000062B38B0708D0521E11F8013BC5
:1014000000F8013B00F024808B07F6D1830740F001
:10141000208000BF103A07D330B4B1E83810103A3A
:10142000A0E83810F9D230BC530724BFB1E8081047
:10143000A0E8081044BF51F8043B40F8043BD20731
:1014400024BF31F8022B20F8022B44BF0B78037025
:101450007047083A07D3B1E80810083A40F8043B4F
:1014600040F804CBF7D25307E4E7000000B9704717
:1014700038B5A0F108042068082833D310F0070F0E
:1014800030D1C046C0461848416809B18C4203D2E9
:101490006160446017E019464B680BB1A342FAD370
:1014A0000B685D18AC421BD3A54204D12268D21848
:1014B0000A600C4607E04A681AB123681B199A4271
:1014C0000ED362604C60616851B1226813198B427F
:1014D00006D10023036008688018206048686060B7
:1014E000C046C04631BD00004C0C00201B4213D149
:1014F000094236D12AB18446B0FBF2F002FB10C299
:10150000704700F0F3BCFCD30022002370470B00AF
:101510000200002100207047904271EB030CF6D3CB
:1015200070B5B1FA81F4B3FA83F52C1BA340C4F172
:10153000200532FA05F63343A2405FF00046E6404C
:1015400002E05B085FEA3202841A71EB030524BFF4
:10155000204629467641F4D302000B0030000021DA
:1015600070BD012ACFD970B5140C20D0B1FA81F426
:10157000B2FA82F5C4F120046419B4F12006D6D37E
:10158000B2405FF00044F440002502E052085FEAF8
:101590003303C61A71EB020E24BF30467146644114
:1015A0006D41F3D302000B002000290070BD0C46F2
:1015B000B1FBF2F102FB11452D0445EA1045B5FBE4
:1015C000F2F402FB145580B240EA0545B5FBF2F097
:1015D00002FB105240EA044070BD30B4436803F08F
:1015E000004201211B031B0B436004BF0368002B57
:1015F00008D10DE00368DD0F45EA440444605B0058
:101600000360491E4468E302F4D523031B0B4360C7
:1016100043681A434260084630BC70474FF4001CD0
:101620001CEB410F94BF1CEB430F09E041EA030C94
:1016300050EA4C0C52EA0C0C03D2994208BF90427B
:10164000704714BF8B428242704700004FF4001C69
:101650001CEB410F94BF1CEB430F09E041EA030C64
:1016600050EA4C0C52EA0C0C03D28B4208BF824267
:10167000704714BF994290427047000070B504460D
:101680000D466068C0F30A5040F2FF71884207D1EE
:101690006068000304BF2068002817D0022070BDD6
:1016A00020B92046FFF799FF012868DA012D0FDBEA
:1016B00040F2FF71091A8D420AD36068002847BFC3
:1016C0000020304900203049C4E90001012070BDEC
:1016D0004142A942616806DA6FF31E51401941EA9E
:1016E0000050606042E0401E63684519012205F128
:1016F000350062F31F53352801F00041636003D3C6
:1017000061600020206070BD002215F11F0F04DA17
:1017100022682360002020356060684214D0521E89
:1017200025689241C0F12003D2439D4045EAD27220
:10173000256825FA00F6656805FA03F3334323604C
:10174000636823FA00F5656060680843B2F1004FF2
:10175000606003D80DD12078C0070AD52068401CEE
:101760002060206828B96068401C60604FF0FF303E
:1017700070BD6068884204BF20680028F6D1002050
:1017800070BD00BF0000F0FF0000F07FF446400D88
:1017900040EAC120490006D200F014F8004248BFD8
:1017A0006FF00040604700F00DF84FF000418842B4
:1017B0008CBF084640426047400D40EAC1204900C6
:1017C00080F00D8040F00040490DA1F58061491C7A
:1017D00005D4D1F11F0154BFC840C01770474FF066
:1017E00000007047010040F10980F446404200F0DB
:1017F00005F851F000416047010000BF09D0B0FA80
:1018000080F18840C91CC1F58461090501EBD02134
:1018100040057047F0B44FF0004591EA030F44BF14
:101820006B4000F065BB00BF841A71EB030604D265
:101830006E40001BB141121973414FF4001C1CEBA8
:10184000410F34BF7CEB430684E00C0DA4EB135630
:10185000362E7DDC012E43DC45EAC32343EA525396
:1018600012BFD20292025B08240545EAC12141EA77
:101870005051D2EBC020994125D407D1B0FA80F65F
:1018800010FA06F164D00020203608E0B1FA81F6A3
:10189000B140C6F1200220FA02F21143B0404FEAF3
:1018A000F474B4EB465434F001064FEA74040AD8D9
:1018B000D6F50016760D04F00044F04061FA06F209
:1018C0005040F1404840C00A40EA415021F00041F8
:1018D00028BF5FEA500550F1000044EBD12137E00A
:1018E00045EAC323DB0A45EAC121C90AB6F120054E
:1018F0000EDD42EA0242120CC5F1200603FA06F69A
:10190000EB4042EA06056D42984161F100010DE0AD
:1019100062FA06F5F240554063FA06FC82EA0C02D0
:10192000F3405A406D42904161EB030111F4801F76
:1019300005D1641E620502D06D004041494121F489
:101940008011430875F1004350F1000041EB045150
:10195000F0BC70471CEB410F15D223F0004352EA54
:1019600043060BD04FEA4C0CBCEB410F04D80C0DD6
:10197000661E342EB7DDEBE7801A994150EA410626
:1019800008BF0021E4E708BF1CEB430F28BF6FF03E
:101990000001DDE7B0B581EA030C0CF0004C40F229
:1019A000FF7515EA11541DBF15EA1357AC42AF423B
:1019B00039E0E41923EA455343F48013C90241F0A6
:1019C000004141EA505EC7021100A7FB0202002855
:1019D0004FF00000EEFB01204FF00001E3FB072178
:1019E00018BF42F00102401800214941E3FB0E01FB
:1019F000A4F580640F0302D252004041494154F1E2
:101A000001046CDD470872F1004250F1000051EB17
:101A10000451A1F580115CBF41EA0C01B0BD4CEA54
:101A200005510020B0BD05EA1357AC4214BFAF42C8
:101A300041E050EA410E1CBF52EA430E02E061460B
:101A40000020B0BD24423C441BD15FEA070EF6D013
:101A5000090302BF01460020AEF1140EB1FA81F76E
:101A6000AEEB070401FA07FE0C37C7F1200100FABC
:101A700007F7C8404EEA000E23EA455343F48013AB
:101A8000A2E733F00043B3FA83F704BFB2FA82FE51
:101A900077440B3FE41BB7F1200E2FBF02FA0EF381
:101AA000BB40C7F1200E22FA0EFE38BF43EA0E03F8
:101AB000BA40641C82E750EA410E14BF52EA430E5A
:101AC0006FF000014FF4001717EB430F8ABF194660
:101AD00017EB410FB5E74CEA05510020B0BDD4F13A
:101AE0000104B4F120070FDAC4F12007520828BF1F
:101AF00042F0010210FA07F501FA07F7E1BF2A43A5
:101B0000E0403843E1400FE0352C98DCC7F1200479
:101B100052EA400220FA07F218BF42F0010231FAFD
:101B200007F0A1400A43002172F1004250F1000089
:101B300051EB0C01B0BD00002DE9F04140F2FF7502
:101B400081EA030C0CF0004C15EA11541DBF15EA94
:101B50001357AC42AF42E9E0BC41C1F31301C3F3F8
:101B60001303801A994143F4801304D2641E400089
:101B7000494180185941C90241EA5051B1FBF3F67D
:101B800003FB1611A2FB0675D7EBC020A94102D2B8
:101B9000761E80185941C90241EA5051B1FBF3FE4B
:101BA00003FB1E11A2FB0E75D7EBC020A94103D287
:101BB000AEF1010E80185941890241EA9051760533
:101BC00046EA8E2EB1FBF3F603FB1611A2FB067557
:101BD000D7EB8020A94102D2761E80185941C90254
:101BE00041EA50514EEA060EB1FBF3F603FB161123
:101BF000A2FB0675D7EBC020A94102D2761E801841
:101C00005941C90241EA5051B1FBF3F703FB1711E7
:101C1000A2FB0735D3EBC020A94167F100070CBF39
:101C2000004247F0010766F3D5274FEA1E31B80896
:101C300014F5806414DDBD0775F1004250EB0E50C1
:101C400051EB045111F5801F5CBF41EA0C01BDE866
:101C5000F0814CF07F6141F0E0410020BDE8F0816F
:101C6000BD076D0840EA0E5041F48011D4F1010423
:101C7000B4F120060ADAC4F120060200E04001FABD
:101C800006F3E1401843B24015430EE0342C14DC57
:101C9000C6F1200445EA40056D0820FA06F2154316
:101CA00021FA06F0A1400D43002175F1004250F1E8
:101CB000000051EB0C01BDE8F08100205FEA0C014F
:101CC000BDE8F081CFB992185B41B3FA83F704BF46
:101CD000B2FA82F6BF190B3FB7F120062FBF02FA06
:101CE00006F3BB40C7F1200622FA06F638BF33439D
:101CF000BA401CB1E419641E2FE77F4231F0004165
:101D0000B1FA81F404BFB0FA80F6A4190B3CB4F127
:101D100020062FBF00FA06F1A140C4F1200620FAE8
:101D200006F638BF3143A0403C1B16E7AC421ABF51
:101D300005EA1357AF4214E050EA41061CBF52EACD
:101D40004306BFE750EA4107304661461CBF41EAFF
:101D50000551BDE8F08152EA430C08BFC143BDE81C
:101D6000F08100204FF4001616EB410F98BF16EBE0
:101D7000430F08BF16EB410F24BFC14305E016EB2C
:101D8000430F0CBF61464CEA0551BDE8F0810000ED
:101D900080B5134800F016F90FF24C020FF244011F
:101DA0000160426241600FF24402826381600FF27F
:101DB0004402C1600161416181618162C16201636C
:101DC0004163C2630164416401BD10B5044800F081
:101DD000F9F80446206808B9FFF7DAFF204610BD7D
:101DE00000000020000000002E00000066616C73FF
:101DF00065000000747275650000000091FBF2F34D
:101E000003FB1211C0E900317047000038B5DFF85C
:101E10004440204600F0D6F8006848B9204600F05B
:101E2000D1F80FF238050560201D00F0CBF80560F1
:101E300031BD10B50446DFF8200000F0C3F850F8BB
:101E4000240010BD80B5DFF8100000F0BBF88069F9
:101E500002BD00008800002090000020000000006B
:101E600030B430B90FF24800D0E90045C2E900456E
:101E70001BE00170012030BC704730B431B90FF263
:101E80003800D0E90045C3E900450EE01AB930BC7E
:101E90006FF00100704708B10A7802800978481E87
:101EA000804130BCC043C00F7047002030BC704739
:101EB0000000000000000000000000000000000022
:101EC0000749086808B1002070470648C008C000EC
:101ED00008600549C908C900091A0160704700BFB8
:101EE000680C00207710002070120020704700005E
:101EF000841A71EB030603D2001BB141121973411E
:101F00004FF4001C1CEB410F34BF7CEB430443E057
:101F10000C0DA4EB1356352E50DC45EAC323DB0A27
:101F200045EAC121C912B6F120050DDD63FA05F6B7
:101F3000EB4086EA0305124218BF45F00105C018C0
:101F400051F100010CD213E062FA06F5F24055405F
:101F5000F3415A40B340F3405A408018594107D3E7
:101F600049085FEA30005FEA350528BF45F0010502
:101F700001F58011420875F1004250F1000041EB7B
:101F80000451F0BC4FF4001C1CEB410F38BF7047EC
:101F90000020090D090570471CEB410F10D252EAD1
:101FA00043060BD0BCEB410F05D80C0DAB43661EAE
:101FB000342EB5DD02E0AB4380185941F0BC7047C8
:101FC000F0BC70477047000038B504000025207849
:101FD000C00740F10181DFF8EC08006810F00C0048
:101FE00008280BD0DFF8DC08006810F00C000C2883
:101FF00028D1DFF8D0080068C00323D54FF4804013
:10200000B0FA80F050F02000C0B24009C0B2012800
:1020100003D1DFF8AC08006802E0DFF80C0D0068BF
:102020004FF48041B1FA81F111F01F010200CA4062
:10203000D00740F1D1806068002840F0CD800120B9
:1020400000F03CBCDFF87808006830F48030DFF83E
:1020500070180860DFF86808006830F48020DFF846
:102060006018086000F081FF05004FF48040B0FA6E
:1020700080F050F02000C0B24009C0B2012803D166
:10208000DFF83C08006802E0DFF89C0C00684FF4C1
:102090008041B1FA81F111F01F010200CA40D0075E
:1020A00007D500F062FF401B6528DED3032000F057
:1020B00005BC6068012808D1DFF80408006850F406
:1020C0008030DFF8FC17086037E06068002810D126
:1020D000DFF8EC07006830F48030DFF8E4170860C0
:1020E000DFF8DC07006830F48020DFF8D4170860E0
:1020F00023E06068052810D1DFF8C407006850F4B9
:102100008020DFF8BC170860DFF8B407006850F4DF
:102110008030DFF8AC1708600FE0DFF8A407006834
:1021200030F48030DFF898170860DFF89407006813
:1021300030F48020DFF8881708606068002825D018
:1021400000F013FF05004FF48040B0FA80F050F02B
:102150002000C0B24009C0B2012803D1DFF86007F7
:10216000006802E0DFF8C00B00684FF48041B1FA6C
:1021700081F111F01F010200CA40D0072CD400F0F9
:10218000F4FE401B6528DED3032097E300F0EDFE4C
:1021900005004FF48040B0FA80F050F02000C0B24B
:1021A0004009C0B2012803D1DFF81407006802E03B
:1021B000DFF8740B00684FF48041B1FA81F111F03F
:1021C0001F010200CA40D00706D500F0CEFE401B1A
:1021D0006528DED3032071E32078800740F1B780C3
:1021E000DFF8E006006810F00C0004280BD0DFF8E0
:1021F000D406006810F00C000C2836D1DFF8C406B5
:102200000068C00331D45FF08040B0FA80F050F035
:102210002000C0B24009C0B2012803D1DFF8A006F7
:10222000006802E0DFF8000B00685FF08041B1FA5F
:1022300081F111F01F010200CA40D00704D5E06807
:10224000012801D0012039E3DFF87C0600685FF443
:102250007801B1FA81F130F4F850226912FA01F1F3
:102260000843DFF86416086071E0E06800283FD09A
:1022700001205FF00041B1FA81F1DFF8DC2B42F878
:10228000210000F072FE05005FF08040B0FA80F09F
:1022900050F02000C0B24009C0B2012803D1DFF8DD
:1022A0002006006802E0DFF8800A00685FF08041E5
:1022B000B1FA81F111F01F010200CA40D00706D423
:1022C00000F053FE401B6528DED30320F6E2DFF862
:1022D000F80500685FF47801B1FA81F130F4F85044
:1022E000226912FA01F10843DFF8DC1508602EE0DC
:1022F00000205FF00041B1FA81F1DFF85C2B42F879
:10230000210000F032FE05005FF08040B0FA80F05E
:1023100050F02000C0B24009C0B2012803D1DFF85C
:10232000A005006802E0DFF8000A00685FF0804165
:10233000B1FA81F111F01F010200CA40D00706D5A1
:1023400000F013FE401B6528DED30320B6E22078A0
:10235000C00640F1EF80DFF86C05006810F00C0F4C
:102360006DD15FF48000B0FA80F050F02000C0B270
:102370004009C0B2012803D1DFF84405006802E03B
:10238000DFF8A40900685FF48001B1FA81F111F06F
:102390001F010200CA40D00704D5A069002801D15E
:1023A00001208BE2DFF82005006810F46040216A0C
:1023B000884220D2206A00F051FD002801D001207F
:1023C0007CE2DFF80405006830F46040216A0843CD
:1023D000DFF8F4140860DFF8F0040068FF21B1FAB8
:1023E00081F10002000AE26912FA01F10843DFF804
:1023F000D81408601FE0DFF8D004006830F46040B3
:10240000216A0843DFF8C0140860DFF8BC040068E4
:10241000FF21B1FA81F10002000AE26912FA01F12A
:102420000843DFF8A4140860206A00F017FD0028B4
:1024300001D0012042E2002000F07FFD7AE0A06997
:10244000002848D001205FF40001B1FA81F1DFF8E3
:10245000082A42F8210000F088FD05005FF48000A2
:10246000B0FA80F050F02000C0B24009C0B201289C
:1024700003D1DFF84C04006802E0DFF8AC08006824
:102480005FF48001B1FA81F111F01F010200CA402E
:10249000D00706D400F069FD401B6528DED3032079
:1024A0000CE2DFF82404006830F46040216A08433D
:1024B000DFF814140860DFF810040068FF21B1FA97
:1024C00081F10002000AE26912FA01F10843DFF823
:1024D000F81308602EE000205FF40001B1FA81F1EA
:1024E000DFF8742942F8210000F03FFD05005FF499
:1024F0008000B0FA80F050F02000C0B24009C0B2B5
:10250000012803D1DFF8B803006802E0DFF81808FB
:1025100000685FF48001B1FA81F111F01F0102003F
:10252000CA40D00706D500F020FD401B6528DED349
:102530000320C3E1207800074AD56069002823D032
:1025400001205FF00041B1FA81F1DFF8A42942F8DF
:10255000210000F00AFD05005FF08040B0FA80F035
:10256000DFF8C40700685FF08041B1FA81F111F033
:102570001F010200CA40D0072AD400F0F6FC401B1D
:102580006528E9D3032099E100205FF00041B1FA0A
:1025900081F1DFF85C2942F8210000F0E6FC05003B
:1025A0005FF08040B0FA80F0DFF87C0700685FF0F1
:1025B0008041B1FA81F111F01F010200CA40D00739
:1025C00006D500F0D2FC401B6528E9D3032075E155
:1025D0002078400740F1D480DFF81809006850F0F7
:1025E0008050DFF810190860DFF80809006810F063
:1025F000805000900098DFF80009006850F4807067
:10260000DFF8F418086000F0B0FC0500DFF8E80817
:102610000068C00506D400F0A8FC401B6528F5D36F
:1026200003204BE1DFF80007006830F48070DFF82A
:10263000F8160860DFF8F006006830F48060DFF814
:10264000E816086000F091FC05005FF48000B0FA25
:1026500080F0DFF8D40600685FF48001B1FA81F100
:1026600011F01F010200CA40D00708D500F07DFC20
:10267000401B41F289318842E7D303201EE1A06864
:10268000012808D1DFF8A006006850F48070DFF858
:102690009816086037E0A068002810D1DFF8880697
:1026A000006830F48070DFF880160860DFF8780684
:1026B000006830F48060DFF87016086023E0A068DE
:1026C000052810D1DFF86006006850F48060DFF85C
:1026D00058160860DFF85006006850F48070DFF884
:1026E000481608600FE0DFF84006006830F480709C
:1026F000DFF834160860DFF83006006830F48060D8
:10270000DFF824160860A06800281CD000F02DFC1B
:1027100005005FF48000B0FA80F0DFF80C06006876
:102720005FF48001B1FA81F111F01F010200CA408B
:10273000D00725D400F019FC401B41F289318842B2
:10274000E7D30320BAE000F010FC05005FF480003E
:10275000B0FA80F0DFF8D00500685FF48001B1FACC
:1027600081F111F01F010200CA40D00708D500F026
:10277000FCFB401B41F289318842E7D303209DE0F6
:10278000606A002800F099804E48006810F00C0044
:102790000C2800F09080606A022861D1002080211E
:1027A000B1FA81F1DFF8B02642F8210000F0DDFB3C
:1027B00005004020B0FA80F050F02000C0B240097F
:1027C000C0B2012802D13E48006802E0DFF8580597
:1027D00000684021B1FA81F111F01F010200CA40E6
:1027E000D00706D500F0C1FB401B6528E1D30320CC
:1027F00064E03448006830F47D00A16A0843E16A6F
:102800000843216B08432F49086001208021B1FA59
:1028100081F1DFF8442642F8210000F0A6FB050014
:102820004020B0FA80F050F02000C0B24009C0B2A1
:10283000012802D12248006802E0DFF8EC040068B9
:102840004021B1FA81F111F01F010200CA40D00706
:1028500033D400F08AFB401B6528E1D303202DE030
:1028600000208021B1FA81F1DFF8EC2542F8210047
:1028700000F07BFB05004020B0FA80F050F0200013
:10288000C0B24009C0B2012802D10D48006802E080
:10289000DFF8940400684021B1FA81F111F01F01C2
:1028A0000200CA40D00708D500F05FFB401B652836
:1028B000E1D3032002E0012000E0002032BD00004F
:1028C00000380240083802400438024070B5040065
:1028D0000D000026DFF82406006810F00100A84271
:1028E00080F00581012D07D1DFF81006006850F057
:1028F0000400DFF808160860DFF8000600684008EA
:1029000040002843DFF8F4150860DFF8F0050068A0
:1029100010F00100A84201D0012004E220788007D5
:1029200009D5DFF8DC05006830F0F000A168084345
:10293000DFF8CC1508602078C00740F1D5816068C9
:1029400002281DD14FF48040B0FA80F050F02000F2
:10295000C0B24009C0B2012803D1DFF8A805006861
:1029600002E0DFF8C40300684FF48041B1FA81F15E
:1029700011F01F010200CA40D0075FD40120D2E14C
:10298000606803281BD14020B0FA80F050F020008E
:10299000C0B24009C0B2012803D1DFF86805006861
:1029A00002E0DFF8840300684021B1FA81F111F000
:1029B0001F010200CA40D00740D40120B3E1606883
:1029C00001281DD15FF08040B0FA80F050F0200067
:1029D000C0B24009C0B2012803D1DFF82805006861
:1029E00002E0DFF8440300685FF08041B1FA81F152
:1029F00011F01F010200CA40D0071FD4012092E14C
:102A00005FF48000B0FA80F050F02000C0B24009BE
:102A1000C0B2012803D1DFF8EC04006802E0DFF85F
:102A2000080300685FF48001B1FA81F111F01F0121
:102A30000200CA40D00701D4012074E1DFF8C004CD
:102A400000688008800061680843DFF8B4140860FB
:102A500000F08BFA06006068022810D1DFF8A004AD
:102A6000006810F00C00082800F03E8100F07DFAAC
:102A7000801B41F289318842F0D3032053E1606822
:102A8000032810D1DFF87804006810F00C000C283F
:102A900000F02A8100F069FA801B41F289318842F6
:102AA000F0D303203FE16068012810D1DFF8500423
:102AB000006810F00C00042800F0168100F055FAB0
:102AC000801B41F289318842F0D303202BE1DFF8EB
:102AD0003004006810F00C0F00F0068100F045FA99
:102AE000801B41F289318842F1D303201BE1207819
:102AF000800709D5DFF80804006830F0F000A1680D
:102B00000843DFF8FC1308602078C00740F1D0804C
:102B1000606802281CD14FF48040B0FA80F050F079
:102B20002000C0B24009C0B2012803D1DFF8D403AD
:102B3000006801E07C4800684FF48041B1FA81F1FF
:102B400011F01F010200CA40D0075CD40120EAE066
:102B5000606803281AD14020B0FA80F050F02000BD
:102B6000C0B24009C0B2012803D1DFF89803006861
:102B700001E06D4800684021B1FA81F111F01F01B8
:102B80000200CA40D0073ED40120CCE06068012892
:102B90001CD15FF08040B0FA80F050F02000C0B24D
:102BA0004009C0B2012803D1DFF85803006801E0F2
:102BB0005D4800685FF08041B1FA81F111F01F01BA
:102BC0000200CA40D0071ED40120ACE05FF48000B0
:102BD000B0FA80F050F02000C0B24009C0B2012825
:102BE00003D1DFF82003006801E04F4800685FF47C
:102BF0008001B1FA81F111F01F010200CA40D00733
:102C000001D401208FE0DFF8F8020068800880001E
:102C100061680843DFF8E812086000F0A6F90600D2
:102C2000606802280FD1DFF8D802006810F00C00AD
:102C300008283DD000F099F9801B41F28931884283
:102C4000F1D303206FE0606803280FD1DFF8B002F2
:102C5000006810F00C000C282AD000F086F9801BC8
:102C600041F289318842F1D303205CE06068012899
:102C70000FD1DFF88C02006810F00C00042817D088
:102C800000F073F9801B41F289318842F1D30320AF
:102C900049E0DFF86C02006810F00C0F08D000F07B
:102CA00064F9801B41F289318842F2D303203AE073
:102CB000012D07D1DFF84402006850F00400DFF86E
:102CC0003C120860DFF834020068400840002843E6
:102CD000DFF828120860DFF82402006810F0010015
:102CE000A84201D001201EE02078400709D5DFF876
:102CF0001002006830F4E060E1680843DFF8001279
:102D00000860207800070AD5DFF8F401006830F485
:102D10006050216950EAC100DFF8E411086000202A
:102D200000F00BF9002070BD34380240F0B50021EE
:102D300000220023002400250020714E3668310057
:102D400011F00C06042E04D0082E05D00C2E06D04F
:102D500032E06D4E300042E06C4E30003FE04FF408
:102D60007056B6FA86F66A4F11F4701CE6463EFAC3
:102D700006FE1EF8076032004FF44076B6FA86F67B
:102D8000644F11F4400CE6463EFA06FE1EF807605A
:102D900033005B4E3668F60306D55C4E06FB02F642
:102DA000B6FBF3F6340005E0574E06FB02F6B6FB21
:102DB000F3F63400200012E0574E366816F46046F1
:102DC0005FF4E027B7FA87F7B4463CFA07FC65469C
:102DD00001266F1CBE404FF400477E433000F0BD1B
:102DE00010B5FFF7A3FF464909685FF07062B2FAB9
:102DF00082F24A4B11F0F0010C00D440E15C020079
:102E0000CA40474802604648006810BD10B5FFF749
:102E1000E7FF01003A4800685FF46002B2FA82F20C
:102E20003E4B10F4E0600400D440E25C0800D04067
:102E300010BD10B5FFF7D4FF0100314800685FF402
:102E4000E012B2FA82F2354B10F460500400D44024
:102E5000E25C0800D04010BD0000474270B582B06F
:102E60000400002500262648006810F0F00F24D149
:102E700020480068C00003D500F07CF8050014E08D
:102E80001C48006850F080501A49086019480068D2
:102E900010F080500090009800F06CF80500154884
:102EA000006830F0805013490860B5F5C05F04D168
:102EB000B4F5404F01D101200600012E05D10F4885
:102EC000006850F004000D4908600C480068400894
:102ED00040003043094908600848006810F00100CC
:102EE000B04201D0012000E0002076BD00000000CB
:102EF000800647422438024000700040003C0240F7
:102F000008380240003802400024F40000127A0021
:102F1000D46D0008146E000804380240906D00085B
:102F20007001002080B5032000F094F8002000F02C
:102F300004F800F0D9F8002002BD10B50400FFF736
:102F40004FFF4FF47A71B0FBF1F000F0A3F80022CC
:102F500021005FF0FF3000F083F8002010BD04482E
:102F60000068401C024908607047014800687047CB
:102F7000640C00200248006810F4C0507047000044
:102F80000070004010F007024D4B1B6819004FF60F
:102F9000FF0319404B4B53EA02231943484B196076
:102FA000704747480068C0F302207047012110F0C5
:102FB0001F029140444A40B2430942F8231070472F
:102FC00010B440B2002808D50A01404B40B210F0BE
:102FD0000F04E31803F8042C03E00A013C4B40B251
:102FE000C25410BC704770B4030013F00704D4F14E
:102FF0000706052E01D3042001E0D4F10700261DA9
:10300000072E01D2002500E0E51E012616FA00F089
:10301000401E0840A8400121A940491E1140084314
:1030200070BC704710B50400601EB0F1807F01D302
:1030300001200EE0601E274908600F215FF0FF307D
:10304000FFF7BEFF002024490860072023490860DD
:10305000002010BD10B504002000FFF793FF10BD45
:10306000F8B504000D0016000027FFF79AFF0700CF
:10307000320029003800FFF7B6FF0100200040B2FF
:10308000FFF79EFFF1BD10B50400200040B2FFF72E
:103090008DFF10BD10B504002000FFF7C3FF10BD69
:1030A000042806D10D49096851F004010B4A11604A
:1030B00005E00A49096831F00401084A11607047C7
:1030C0000CED00E00000FA0500E100E018ED00E082
:1030D00000E400E014E000E018E000E010E000E0B0
:1030E00080B500F04BF801BD80B51148006850F084
:1030F00000400F4908600E48006810F00040009042
:1031000000980C48006850F001000A49086009481E
:10311000006810F00100009000980320FFF79AFF6C
:10312000002200215FF0FF30FFF79AFF01BD00BFD2
:10313000243802402038024080B500F0BFFF01BDB6
:10314000012101707047418081807047002101702A
:103150007047704738B504000D0029002000FFF7C4
:10316000F2FF31BD10B504002000FFF7E9FF10BDEC
:1031700010B504002000FFF7E9FF10BD60480068AB
:10318000002804D05E480068401E5D4908605D4824
:103190000088401E5B4908805A480088002806D1F4
:1031A0000120594908704FF47A70564908805748F1
:1031B000007800280FD055488088401E53498880E9
:1031C00052488088002806D1504840884F4988805E
:1031D00001204E4988714E48007800280FD04C4895
:1031E0008088401E4A49888049488088002806D146
:1031F00047484088464988800120454988714548AC
:10320000807800280FD04348C088401E4149C880BC
:103210004048C088002806D13E4880883D49C88083
:1032200001203C4908723C48007800280FD03A48F9
:103230008088401E3849888037488088002806D119
:1032400035484088344988800120334988713348A3
:10325000807900280FD031484089401E2F4948818D
:103260002E484089002806D12C4800892B494881E6
:1032700001202A49087370477047020000207047F8
:10328000F0B4020000244FF6FF70FF25FF26002750
:103290003B00DBB2C9B28B420ED2DBB29F5C7740FF
:1032A0003C001F4FE4B2E75D6F403E001D4FE4B2AB
:1032B000E75D3D005B1CECE7EDB2F6B256EA052790
:1032C000380080B2C04380B2F0BC704702000020DA
:1032D0000B00591EDBB2002B03D013781818521CB8
:1032E000F6E7C0B27047020000200B00591EDBB2A7
:1032F000002B03D013785840521CF6E7C0B2704739
:10330000540C0020800100206C0C00203C0C00209C
:10331000440C0020040C0020280C0020E40B0020AA
:103320000067000800680008016082800023C380F5
:1033300000230381704770B4020000230024D0886A
:10334000030010890400D0889688B0420FD2E0189C
:103350000500ADB2908895FBF0F600FB165510689D
:10336000ADB22954D088401CD080012000E000205C
:1033700070BC70472DE9FE4F04008B4615000026F7
:103380000027E088060020890700E0882818ADF8AB
:103390000000A088BDF8001088424AD3B8198046C2
:1033A00015EB0800ADF80200A0881FFA88F88045E8
:1033B00004D2A088BDF80210884212D31FFA88F800
:1033C000A08898FBF0F100FB1188ADB220681FFACD
:1033D00088F818EB000A2A0059465046FEF70AF80A
:1033E00022E0A088B0EB080081461FFA89F9CDF8E9
:1033F0000890CDF804B020681FFA88F818EB000A8E
:10340000029A01995046FDF7F5FF1FFA89F919EB69
:103410000B0BB5EB09091FFA89F9D4F800A04A464D
:1034200059465046FDF7E6FFBDF80000E080012058
:1034300000E00020BDE8FE8F2DE9F84F83460C0028
:103440001500E088ADB2A84201D3A84601E0B4F867
:103450000680A0882189401A0600B6B21FFA88F8B3
:10346000464510D320891FFA88F8216880B210EBF6
:103470000109424649465846FDF7BCFF208918EB32
:10348000000020811BE037002089BFB23E00216888
:1034900080B210EB0109320049465846FDF7AAFFF9
:1034A000BFB217EB0B0BB8EB06000700BFB2D4F8A6
:1034B00000A03A0051465846FDF79CFF2781E0885E
:1034C000B0EB0800E080404680B2BDE8F28F2DE905
:1034D000F04F83B083460C0015001E0000275FF0FC
:1034E00000085FF0000A5FF00009E088ADB2A84272
:1034F0004ED3E088ADB2401BB6B2B04201DBB2465B
:1035000002E0E088B0EB050A2089ADB22818A18856
:1035100090FBF1F201FB120081461FFA8AFABAF120
:10352000000F35D0A088B0EB09000700BFB21FFA2A
:103530008AFA57450DD31FFA8AFA20681FFA89F9CB
:1035400019EB00000090524600995846FDF752FFD3
:103550001EE0B8461FFA88F8474620681FFA89F926
:1035600019EB000000903A0000995846FDF742FF21
:103570001FFA88F818EB0B0BBAEB070080461FFA0E
:1035800088F820680190424601995846FDF732FFBD
:10359000504680B2BDE8FE8F0200D38889B28B42CC
:1035A00001D3080000E0D088D3881B1AD38080B2F2
:1035B0007047000010B5DFF84C0B0078012818D0D8
:1035C000DFF8440BC088002813D00120DFF8341B3B
:1035D00008706422DFF8301BDFF8300BFFF72CFF98
:1035E0000400220092B2DFF8241BDFF86C0B00F01D
:1035F0009FFE10BDDFF8601B814203D10021DFF880
:10360000042B117070470020DFF8501B4870002019
:10361000DFF8481B087070470020DFF8441B087073
:103620000020DFF83C1B487070472DE9F041E2B004
:1036300022A8FC2101F006F900A8882101F002F976
:103640000024DFF8200BC088DFF8101B4988401ADF
:103650000400E4B223009BB2DFF8000B4288DFF8DD
:10366000041B22A8FFF733FFE4B2210089B2DFF880
:10367000F40AFFF791FF0026002522A8F6B2305C7D
:103680008DF80000761C22A8F6B2305C8DF801009F
:10369000761C22A8F6B2305C8DF80200761C22A8B7
:1036A000F6B2305C8DF80300761C00200500EDB208
:1036B0009DF80300801E85420FDA22A8F6B2305C26
:1036C00000A9EDB26918087122A8F6B2305CF5289D
:1036D00000D1761C6D1C761CE9E722A8F6B2305C9E
:1036E00000A9EDB26918087122A8F6B2305CF5287D
:1036F00008D122A8F6B23018807800A9EDB2691876
:10370000487107E022A8F6B23018407800A9EDB25F
:103710006918487100275FF000089DF80200C0B2E8
:10372000C009C0B200280AD0E11EC9B20DF10300E1
:10373000FFF7A3FD002802D00220804641E09DF85B
:103740000200C0B2400910F00300002803D0022894
:1037500027D016D335E000A8EDB22818007900A9CB
:10376000EDB26918497951EA002007003100C9B269
:1037700022A8FFF785FDBFB2874201D00120804615
:103780001FE0F11EC9B20DF18B00FFF79FFD00A9EC
:10379000EDB269180979C0B2814201D0012080469A
:1037A0000FE0F11EC9B20DF18B00FFF79CFD00A9DF
:1037B000EDB269180979C0B2814201D0012080467A
:1037C000FFE75FFA88F8B8F1000F19D10420DFF89D
:1037D0008C1908719DF80300021D92B200A9DFF850
:1037E0008409FFF7C7FD00280ED0DFF87009408874
:1037F0009DF80310091D0818DFF86019488003E0E0
:10380000DFF8580980F80480FFF7FDFE62B0BDE8DC
:10381000F08170B504000D006421DFF84C09FFF75A
:1038200099FCDFF84409FFF79DFC00200600F6B282
:10383000EDB2AE427DD2DFF824090078002819D11C
:10384000F6B2305DF52804D10120DFF810190870B8
:103850006DE0DFF808094078002804D1DFF8080996
:10386000FFF786FC65E0F6B2315DDFF8F808FFF798
:1038700062FD5CE00020DFF8E4180870DFF8DC0887
:103880004078002819D1F6B2305DF52810D1032018
:10389000DFF8C8184870F6B2315DDFF8C808FFF7E6
:1038A0004AFDF6B2315DDFF8BC08FFF744FD3EE0AB
:1038B000DFF8B408FFF75CFC3BE0F6B2305DF528BA
:1038C0000ED1FFF7B2FEF6B2315DDFF89808FFF7D0
:1038D00032FDF6B2315DDFF88C08FFF72CFD26E0F3
:1038E000F6B2305D55280BD1F521DFF87808FFF7E7
:1038F00022FDF6B2315DDFF86C08FFF71CFD16E023
:103900000320DFF858180871DFF85808C088DFF87E
:103910004C184988411A89B2DFF84808FFF73CFE85
:10392000DFF84408FFF724FCFFF76DFE01E0761C8A
:103930007DE770BD80B5DFF830088079002809D0B8
:103940000020DFF824188871DFF81C08FFF710FC4E
:10395000FFF76BFE01BDF8B504000D001600F01C6A
:10396000DFF80818C870DFF804080471F6B2002EFA
:1039700007D0F6B2DFF8F877320029003800FDF7FB
:1039800039FD0220DFF8E41781F88700F1BD10B49B
:1039900000200021DFF8DC275279DFF8D8379B7947
:1039A00053EA02221000DFF8CC27D279DFF8C437BF
:1039B0001B7A53EA02221100052289B20B001F2B49
:1039C00003D0B3F5B45F0ED01BE0DFF8A837D2B256
:1039D000D3181B79DFF8A0472370521C0223DFF8AD
:1039E0009C47E3720DE0DFF88C37D2B2D3181B7915
:1039F000DFF884476370521C0123DFF88047E372CD
:103A0000FFE710BC704710B5DFF8600790F887003B
:103A1000002864D1DFF85C0790F8870003283FD1C5
:103A20000020DFF8501781F88700DFF84807007999
:103A3000012806D006280BD0102822D0122827D023
:103A40002DE00222DFF830170220FFF784FF46E066
:103A50000024DFF820074079DFF81817897951EA48
:103A600000200400A4B2642C05DB00220021052004
:103A7000FFF771FF04E0002200210320FFF76BFF36
:103A80002DE02422DFF8F8161120FFF764FF26E06E
:103A90000922DFF8F0161320FFF75DFF1FE01EE09C
:103AA000DFF8E4060078002819D0DFF8DC0600789B
:103AB000072806D017280BD031280AD0822809D031
:103AC00009E00222DFF8B0160720FFF744FF02E00A
:103AD00001E000E0FFE70020DFF8AC16087010BD41
:103AE00080B5DFF87806408800282BD000208DF8BC
:103AF0000000DFF8800690F88700002822D101231B
:103B00000322DFF8601600A8FFF7E1FC9DF8000033
:103B1000001D8DF800009DF8002092B2DFF84416D9
:103B2000DFF85006FFF788FCDFF8300640889DF884
:103B30000010401ADFF8241648800220DFF83416FF
:103B400081F88700DFF82C0690F88700022840F003
:103B50008C80DFF82006007901280ED0052814D0CB
:103B600006282CD008284FD0092853D010285BD025
:103B700012285FD0302863D06EE0FFF708FF0320E3
:103B8000DFF8F01581F887006FE0DFF80006007AB3
:103B9000012803D10220DFF8F41508720020DFF8B5
:103BA000D41581F887000020DFF8C01581F8870060
:103BB000DFF8DC05FFF7DCFAFFF72EFD55E000200B
:103BC0000321DFF8B02582F88710DFF8A8154979BE
:103BD000DFF8A025927952EA0121080080B264281A
:103BE00003DBDFF8B01588800DE0DFF8A8158988C1
:103BF000002904D06421DFF89C25918003E0002196
:103C0000DFF89025918030E00320DFF8681581F817
:103C100087002AE00020DFF85C1581F88700032088
:103C2000DFF86815087220E00320DFF8481581F8F6
:103C300087001AE00320DFF83C1581F8870014E0C4
:103C40000020DFF8301581F88700DFF8280540797B
:103C5000DFF84415087008E00020DFF8181581F837
:103C60008700DFF8380500F0F1FD01BD38B504002C
:103C70000D00EDB22A0092B22100DFF82405FFF713
:103C800079FB002801D0012000E0002032BD10B4F3
:103C9000D2B2F52A05D00B785C1C0C70DBB21A543A
:103CA0000AE00B785C1C0C70DBB21A540B785C1CBD
:103CB0000C705524DBB21C5410BC704730B5C1B039
:103CC00000208DF80000002402A8FC2100F0BAFDBD
:103CD000F52002A99DF8002050549DF80000401CDA
:103CE0008DF80000F52002A99DF8002050549DF8A1
:103CF0000000401C8DF80000DFF87004807802A9F5
:103D00009DF8002050549DF80000401C8DF80000E4
:103D1000DFF85804C07802A99DF8002050549DF89F
:103D20000000401C8DF8000000200400E4B2DFF821
:103D30003C04C078801E84420ADADFF83004E4B222
:103D40002018027900A902A8FFF7A1FF641CEDE783
:103D5000DFF818048078C0F34110C0B2002813D1F6
:103D60009DF8001002A8FFF78BFAADF804009DF84B
:103D7000052000A902A8FFF78AFF9DF8042000A9EA
:103D800002A8FFF784FF3AE0DFF8E0038078C0F391
:103D90004110C0B2012815D100259DF80000C11EB8
:103DA000C9B20DF10B00FFF791FA05002A00D2B25B
:103DB00000A902A8FFF76BFF002200A902A8FFF7E5
:103DC00066FF1CE0DFF8A4038078C0F34110C0B2A6
:103DD000022814D100259DF80000C11EC9B20DF1C2
:103DE0000B00FFF780FA05002A00D2B200A902A852
:103DF000FFF74DFF002200A902A8FFF748FF9DF83A
:103E0000001002A8FFF732FF002801D0012000E0D7
:103E1000002041B030BD80B5DFF874038079002800
:103E20001DD00020DFF868138871DFF83403407874
:103E3000032809D0DFF828034078401CDFF820135E
:103E40004870FFF73BFF0AE00020DFF8201381F8FD
:103E50008700DFF83C03FFF78BF9FFF7DDFB01BDBF
:103E600010B5DFF8080390F88700022833D100244A
:103E7000BE4800790400BD48C078801CB84908706D
:103E8000BA488078C0B2C009C0B2002807D0B7488D
:103E9000C078411CC9B2DFF80C03FFF7EDF9FFF75A
:103EA0000DFFE4B22000072805D0172803D03128E1
:103EB00001D082280BD10320AC4981F88700002370
:103EC00000224FF48771B248FFF743F903E0002066
:103ED000A64981F8870010BD704780B5AB4880794E
:103EE000012807D10020A94988710222A249042093
:103EF000FFF731FD01BD80B5AB48007A012813D131
:103F00000020A9490872A8484078012806D100205D
:103F1000A5494870A548FFF72BF905E00020A44902
:103F20000870A248FFF724F901BD10B59E484078FB
:103F3000002852D1002401219E4800F079FD0400A0
:103F400099480078002805D0022825D016D30328E8
:103F500035D042E0E4B2002C0FD001209249087025
:103F60000120914948700023002214218F48FFF757
:103F7000F0F88E48FFF7F6F855E02EE0E4B2002C9A
:103F800006D002208849087001208949487002E063
:103F900000208549087020E0E4B2002C0ED10320F7
:103FA00081490870012080494870002300221421B3
:103FB0007E48FFF7CEF87D48FFF7D4F80DE0E4B275
:103FC000002C03D002207849087005E000207649D3
:103FD0000870012076498870FFE7754880780128CD
:103FE00021D100207249887071480078002806D0DD
:103FF00000206F4908706D48FFF7BAF813E00222FD
:104000005D490420FFF7A7FC69480078401C684917
:104010000870002300224FF4C8716448FFF799F834
:104020006248FFF79FF810BD80B55A480078002815
:1040300014D158488088002810D0012055490870B4
:1040400054488088534948800023002264215A48FC
:10405000FFF77FF85848FFF785F80DE04D480078E6
:10406000002809D04B488088002805D10020494904
:1040700008705148FFF77CF801BD80B54548007BCA
:1040800000281AD00020434908734248808800283D
:1040900003D14948FFF76CF80FE03E484088401EC6
:1040A0003C4948803B484088002806D139488088F0
:1040B0003849488007203449087001BD80B5FFF7B2
:1040C00039FCFFF70DFDFFF79EFCFFF7C9FEFFF778
:1040D000A2FEFFF7A9FFFFF7D0FFFFF7FEFEFFF7F5
:1040E000FBFEFFF767FAFFF706FFFFF71EFF01BDB4
:1040F00019480068C06850F0200017490968C86076
:10410000704700006D0C00201C0C0020940A002059
:1041100080B5FFF7EDFF01BD80B54FF48062274900
:104120001F48FFF701F94FF4806225490D48FFF75A
:10413000FBF8F5200D490870F5200C494870002067
:104140000A498870F5200B490870F5200949487024
:1041500000F0A2FC01BD0000480B0020340C002040
:104160005C0C0020100C00203C0C00200C0A0020ED
:10417000110A002084090020600C0020F40B0020AC
:104180009C6C0008C86D00086E0C0020280C0020F4
:10419000440C0020E40B00206F0C0020806D000810
:1041A0001C0C00200F0A0020040C0020060C00202C
:1041B000580C002000000240EA0B0020840500207B
:1041C0008401002010B50400002C01D1012030E052
:1041D000A0690028FFD194F83900002805D10020FB
:1041E00084F83800200000F0C1FC022084F8390077
:1041F0002068C06830F400502168C860200000F0DA
:104200002AFA2068006930F490402168086120682B
:10421000406930F02A00216848612068C06850F485
:1042200000502168C8600020E063012084F8390054
:10423000002010BD2DE9F84304000D0016001F00FA
:104240005FF0000994F839008146B9F1010F02D0FE
:10425000B9F1220F69D1002D02D0B6B2002E01D1E2
:10426000012063E094F83800012801D102205DE0CC
:10427000012084F838000020E06394F839002228F7
:1042800003D1322084F8390002E0122084F839008A
:10429000A684E684E08C00282DD0E08C401EE084CB
:1042A000A068B0F5805F17D13B000022802120007C
:1042B00000F00BF9002801D0032037E0A846B8F839
:1042C0000000C005C00D216848602069002801D1A8
:1042D000AD1CDFE76D1CDDE73B00002280212000E4
:1042E00000F0F3F8002801D003201FE028782168AF
:1042F00048606D1CCEE73B0000224021200000F00A
:10430000E4F8002801D0032010E094F839003228A6
:1043100003D1222084F8390002E0012084F839001A
:10432000002084F83800002000E00220BDE8F2837D
:1043300030B40300002493F839000400012C01D0AC
:10434000222C2AD1002902D092B2002A01D10120C8
:1043500024E093F83800012801D102201EE001205A
:1043600083F8380019629A84DA840020D86393F8BD
:104370003900222803D1322083F8390002E01220CC
:1043800083F83900002083F838001868C06850F0BE
:1043900080001D68E860002000E0022030BC70470B
:1043A0007CB50400002500262068006810F001009C
:1043B00005002068C06810F480700600002D05D04C
:1043C000002E03D0E06B50F00100E063206800682D
:1043D000400810F0010005002068406910F001005D
:1043E0000600002D05D0002E03D0E06B50F0040035
:1043F000E06320680068800810F001000500002DCF
:1044000005D0002E03D0E06B50F00200E06320687E
:104410000068C00810F001000500002D05D0002E36
:1044200003D0E06B50F00800E063206800684009AA
:1044300010F0010005002068C06810F020000600A0
:10444000002D0CD0002E0AD000208DF8040020682A
:1044500040688DF80400012101A8FFF7DAF920680F
:104460000068C00910F0010005002068C06810F065
:1044700080000600002D04D0002E02D0200000F0A5
:1044800095F820680068800910F001000500206898
:10449000C06810F040000600002D04D0002E02D0AD
:1044A000200000F0C0F8E06B00280CD02068006805
:1044B00000902068406800900098012084F839003E
:1044C000200000F001F873BD70472DE9F0410400B1
:1044D0000D0016001F005FF00008FEF746FD804645
:1044E000F6B2002E2FD1206800682840A8425AD08A
:1044F00017F1010FF7D0002F05D0FEF736FDB0EB16
:1045000008008742EFD22068C06830F08000216840
:10451000C8602068C06830F020002168C86020684A
:10452000C06830F480702168C86020684069400825
:10453000400021684861012084F83900002084F897
:104540003800032030E0206800682840A8422AD1C3
:1045500017F1010FF7D0002F05D0FEF706FDB0EBE5
:1045600008008742EFD22068C06830F080002168E0
:10457000C8602068C06830F020002168C8602068EA
:10458000C06830F480702168C860206840694008C5
:10459000400021684861012084F83900002084F837
:1045A0003800032000E00020BDE8F08110B40100D5
:1045B000002391F839000300122B01D0322B2FD1A8
:1045C0008868B0F5805F11D1086A02001088C005C4
:1045D000C00D0C6860600869002803D1086A801C5F
:1045E000086209E0086A401C086205E0086A441C89
:1045F0000C6200780C686060C88C401EC884C88C4F
:1046000000280BD10868C06830F080000C68E060BA
:104610000868C06850F040000C68E060002000E0CE
:10462000022010BC704710B504002068C06830F04C
:1046300040002168C86094F83900322803D1222054
:1046400084F8390002E0012084F839002000FEF7E8
:10465000D1FF002010BDF8B50400002520680069D6
:1046600030F44050E168084321680861A06821697E
:10467000084361690843E169084305002068C06890
:104680006E49084028432168C8602068406930F4BA
:104690004070A169084321684861E069B0F5004FA6
:1046A00065D120686649884230D1FEF7C2FB070019
:1046B000FEF7BFFB0600FEF7BCFB192101FB07F16B
:1046C00062685200B1FBF2F16422B1FBF2F11922EF
:1046D00002FB06F263685B00B2FBF3F21923584356
:1046E00063685B00B0FBF3F06423B0FBF3F064237A
:1046F00003FB1020000132306422B0FBF2F010F016
:104700000F0050EA01102168886095E0FEF77EFBFB
:104710000700FEF77BFB0600FEF778FB192101FB83
:1047200007F162685200B1FBF2F16422B1FBF2F1D1
:10473000192202FB06F263685B00B2FBF3F2192355
:10474000584363685B00B0FBF3F06423B0FBF3F005
:10475000642303FB1020000132306422B0FBF2F02E
:1047600010F00F0050EA01102168886064E02068B2
:104770003349884230D1FEF75CFB0700FEF759FB56
:104780000600FEF756FB192101FB07F16268920053
:10479000B1FBF2F16422B1FBF2F1192202FB06F245
:1047A00063689B00B2FBF3F21923584363689B00D4
:1047B000B0FBF3F06423B0FBF3F0642303FB1020A1
:1047C000000132306422B0FBF2F010F00F0050EA2A
:1047D0000110216888602FE0FEF718FB0700FEF744
:1047E00015FB0600FEF712FB192101FB07F16268B9
:1047F0009200B1FBF2F16422B1FBF2F1192202FB4B
:1048000006F263689B00B2FBF3F219235843636816
:104810009B00B0FBF3F06423B0FBF3F0642303FBD5
:104820001020000132306422B0FBF2F010F00F00D3
:1048300050EA011021688860F1BD0000F369FFFFB4
:1048400000380140002200F0D3B900000EB400B5DA
:1048500082B003A90091024600AB012103487844CD
:104860000A30FBF747FC06BC5DF810FBAF240000E4
:1048700078B40022002300240D682E00D640002EBC
:1048800000F0D4800D680126964035402B00002BA7
:1048900000F0CA804D68022D02D04D68122D16D14D
:1048A000D50810EB85052D6A2C000F2512F00706A0
:1048B000F6B2B600B540AC430D6912F00706F6B289
:1048C000B600B5402C43D50810EB85052C62056871
:1048D0002C0003251600F6B27600B540AC430D79E6
:1048E00015F003051600F6B27600B5402C430460BF
:1048F0004D68012D08D04D68022D05D04D68112D51
:1049000002D04D68122D19D185682C0003251600A0
:10491000F6B27600B540AC43CD681600F6B276002C
:10492000B5402C43846045682C0001259540AC437C
:104930004D68C5F3001595402C434460C5682C00B4
:1049400003251600F6B27600B540AC438D6816001C
:10495000F6B27600B5402C43C4604D68ED0063D5D7
:10496000394D2D6855F00105374E3560364D2D68AF
:1049700015F001050095009D344D960855F8265018
:104980002C000F2512F00306F6B2B600B540AC437A
:104990002F4DA84201D1002514E02E4DA84201D18F
:1049A00001250FE02C4DA84201D102250AE02B4D34
:1049B000A84201D1032505E0294DA84201D10425D3
:1049C00000E0052512F00306F6B2B600B5402C4310
:1049D0001E4D960845F82640224D2D682C009C431C
:1049E0004D68ED0300D51C431E4D2C601E4D2D68F7
:1049F0002C009C434D68AD0300D51C431A4D2C6020
:104A00001A4D2D682C009C434D68ED0200D51C43C7
:104A1000164D2C60164D2D682C009C434D68AD0240
:104A200000D51C43124D2C60521C25E771BC704709
:104A30000200136989B20B4202D00123180001E081
:104A400000231800C0B2704720380240080001401F
:104A5000000002400004024000080240000C024036
:104A60000010024000040140040401400804014019
:104A70000C04014010B586B00400012024490873DD
:104A8000002201A9200000F0CDF8002200A920009A
:104A900000F0AFFB06B010BD30B593B01E48FFF775
:104AA000D5FE07A804001D4801901D48FFF7CEFE63
:104AB0001C48FFF7CBFE01AD280000F07BFC040092
:104AC0001948FFF7C3FEA06808308DF80800606839
:104AD0008DF8090020688DF80A00002202A90D480F
:104AE00000F07EFA2069401C8DF80100E0688DF826
:104AF0000200606964388DF80300002200A90548AF
:104B000000F0F9FA0948FFF7A1FE13B030BD00002C
:104B1000F40B0020C40B0020B06D0008B5E1AA56CC
:104B2000506D0008606D0008706D0008BC6D0008D5
:104B300080B52B482B4908604FF41650294948602E
:104B400000202849886000202649C86000202549A7
:104B500008610C2023494861002022498861002017
:104B60002049C8611F48FFF72DFB01BD10B586B075
:104B7000040020681A4988422FD11B48006850F46D
:104B80008040194908601848006810F4804000907F
:104B90000098402001900220029001200390032001
:104BA00004900720059001A91048FFF761FE8020BE
:104BB000019002200290002003900320049007201F
:104BC000059001A90948FFF753FE00220021252086
:104BD000FEF746FA2520FEF756FA06B010BD000093
:104BE00000380140480B00202038024000040240F9
:104BF00000B500BF130096469446103928BFA0E8C0
:104C00000C50FAD85FEA417C28BF0CC048BF40F87E
:104C1000042BC90728BF20F8022B48BF00F8012B3E
:104C200000BD0000F8B504000D0016000027206844
:104C3000806A80B26860206800694004400CA86007
:104C400020680068DFF8881208400700380C10F070
:104C50003F002870380A10F07F00687017F07F005E
:104C6000A870380C10F04000E870002E0BD12878A6
:104C700000F045FB2870687800F041FB6870A87868
:104C800000F03DFBA8700020F2BD2DE9F44F0400B8
:104C90000D00002600275FF00008207F012801D1C9
:104CA0000220F4E00120207702206077009800289D
:104CB00030D120688068400601D40020E870E8699F
:104CC0000028FFD0287800F00FFB8246687800F0BB
:104CD0000BFB8346A87800F007FB814695F820007F
:104CE00000F002FB5FFA8AFA5FFA8BFB5FEA0B21A6
:104CF00051EA0A415FFA89F959EA0101EA7851EA71
:104D00000241C0B251EA0060E96908436969084399
:104D100007002BE020688068400604D5287800F062
:104D2000EEFA070001E00020E870E869002805D1EC
:104D300095F8200000F0E3FA070004E095F8200061
:104D400000F0DDFA070028786978090251EA00408E
:104D5000A9780843E97850EA014095F8201050EA14
:104D60000160E96908436969084307006868A9693F
:104D700008438046CA20216848625320216848625F
:104D8000686AB0F5807F35D12068806830F4807023
:104D9000216888602068C06810F0800070F4C070DE
:104DA0002168C860FEF7E1F806002068C068C00707
:104DB0000ED4FEF7DAF8801BB0F57A7FF5D9FF2024
:104DC00021684862032060770020207703205EE09E
:104DD0002068C7612068C0F844802068806850F46B
:104DE0008070216888602068806850F48050216855
:104DF000886034E02068806830F400702168886042
:104E00002068C06810F0800070F420702168C860CD
:104E1000FEF7ABF806002068C06880070ED4FEF7E6
:104E2000A4F8801BB0F57A7FF5D9FF20216848628D
:104E30000320607700202077032028E020680762A5
:104E40002068C0F848802068806850F400702168AD
:104E500088602068806850F4005021688860DFF81E
:104E60007400006850F40030DFF868100860DFF864
:104E70006800006850F40030DFF85C100860FF2024
:104E80002168486201206077002020770020BDE87B
:104E9000F28F38B50400002520688068800614D49D
:104EA0002068C06830F0A0002168C860FEF75DF897
:104EB00005002068C068800607D4FEF756F8401B3E
:104EC000B0F57A7FF5D9032000E0002032BD000064
:104ED0007F7F7F0000040140080401400200107F32
:104EE000012801D1022022E0012010770220507712
:104EF000CA2013685862532013685862106880688B
:104F000030F40020136898601068806808431368C4
:104F100098601068806850F4000013689860FF2063
:104F200013685862012050770020107700207047E6
:104F30007047000010B50400002C01D101204EE0A4
:104F4000607F002804D100202077200000F082FA42
:104F500002206077CA202168486253202168486295
:104F6000200000F0A5F9002806D0FF202168486243
:104F700004206077012032E020688068DFF8201389
:104F80000840216888602068806861682269114350
:104F900062691143084321688860E06821680861FC
:104FA00020680069A16850EA014021680861206812
:104FB000C06830F080002168C8602068006C30F460
:104FC0008020216808642068006CA169084321687A
:104FD0000864FF202168486201206077002010BD2E
:104FE0002DE9F84304000D0016000027207F01285A
:104FF00001D102207DE00120207702206077002E81
:105000001FD120688068400601D40020E87028780D
:1050100000F06AF98046687800F066F98146A87861
:1050200000F062F95FFA88F85FFA89F95FEA09210E
:1050300051EA0841C0B20843E97850EA014007004C
:1050400015E020688068400604D5287800F057F9FC
:10505000070001E00020E87028786978090251EA29
:105060000040A9780843E97850EA01400700CA20C7
:1050700021684862532021684862200000F018F936
:10508000002808D0FF2021684862042060770020B3
:10509000207701202DE0834838402168086020688F
:1050A000806830F480202168886020688068E96822
:1050B0002A6911430843216888602068C06830F07D
:1050C00080002168C8602000FFF7E3FE002808D0B8
:1050D000FF202168486204206077002020770120AB
:1050E00007E0FF20216848620120607700202077D8
:1050F0000020BDE8F2832DE9F84304000D001600FE
:105100000027207F012801D1022070E001202077B4
:1051100002206077002E07D16878C00604D5687831
:1051200010F0EF000A306870002E19D1E87800F016
:10513000DBF88046687800F0D7F88146A87800F060
:10514000D3F85FFA88F85FFA89F95FEA092151EA32
:105150000841C0B20843297850EA4130070012E004
:10516000687800F0CCF80700A87800F0C8F80700CD
:10517000E8786978090251EA0040A978084329785B
:1051800050EA41300700CA20216848625320216854
:105190004862200000F08CF8002808D0FF20216829
:1051A0004862042060770020207701201FE03E48FD
:1051B0003840216848602068C06830F0800021686D
:1051C000C8602000FFF765FE002808D0FF20216896
:1051D00048620420607700202077012007E0FF204C
:1051E0002168486201206077002020770020BDE818
:1051F000F283F8B504000D0016000027206840680F
:10520000294908400700380CE870380A10F01F00E0
:10521000687017F03F00A870780B10F00700287036
:10522000002E0BD1E87800F06AF8E870687800F09A
:1052300066F86870A87800F062F8A8700020F2BDE7
:1052400010B5040020688068C0040ED52068C068CE
:10525000C0050AD52000FFF70DFC2068C06810F0DB
:10526000800070F4C0702168C86020688068800485
:105270000ED52068C06880050AD52000FFF758FECB
:105280002068C06810F0800070F420702168C86049
:105290005FF40030054908600120607710BD000010
:1052A000BFFF8FFF7F7F7F003FFFFF00140401409F
:1052B00038B5040000252068C068400612D45FF0AD
:1052C000FF302168C860FDF750FE05002068C06807
:1052D000400607D4FDF749FE401BB0F57A7FF5D9AB
:1052E000032000E0002032BD0021C0B20A2802DB0A
:1052F000491C0A38F9E750EA0110C0B27047002192
:10530000C0B20209D2B20A235A431100C0B210F04F
:105310000F004018C0B27047F0B5244E83B030463D
:10532000FCF750FE0446224D2846FCF74BFE006871
:1053300008B9FCF76BFD2846FCF744FE0546301D16
:10534000FCF740FE064628682168814228D0007894
:1053500010B900F0AFF8286000AA2868022100F018
:10536000AEF8074600230A2201A900F0C9F8306010
:105370000199009AC91B914205D100F2135040F6E1
:105380002721884201D3002030606421306890FBDF
:10539000F1F101EB8102C0EBC200306028682060AF
:1053A0003068A0EB0011880003B0F0BD6801002058
:1053B0008800002010B50446FFF7AEFF2168BDE865
:1053C000104041184FF0FF32002000F0FAB8000002
:1053D00000B58BB03348344908600020324948603A
:1053E0007F2031498860FF202F49C86000202E4966
:1053F000086100202C49486100202B4988612A4817
:10540000FFF798FD00208DF8000000208DF80100C6
:1054100000208DF802000020019000200390002061
:1054200004905FF0803005900020069000200790E7
:1054300001208DF820004FF480700990002200A90F
:105440001948FFF722FC5FF400211748FFF746FDDB
:105450000BB000BD10B586B0040020681149884229
:105460001ED101204FF40071B1FA81F10F4A42F8C8
:1054700021004FF400500090022001900020029083
:10548000002003900020049000A90948FFF7F0F9DC
:10549000002200212920FDF7E3FD2920FDF7F3FD7F
:1054A00006B010BD00280040C40B00208006474213
:1054B000000802400FF20400704700003A00F8B5FF
:1054C00004460D462078002816460CBF002714F825
:1054D000017B01E06D1E441C39462046FBF7CAFEE5
:1054E00018B92046FBF7D2FE0019012D03DA001B84
:1054F00030602046F2BD01780029EBD13160F2BD69
:105500002DE9F84380460E0091461D4608BF00AEC7
:10551000474600E07F1C387800F0FAF80028F9D1FF
:1055200038782D2816BF2B2817F8014B2B242B4633
:105530004A463146384600F0F5F831688F4208BFD8
:10554000C6F800803168884514D120B92D2C16D1B9
:10555000B0F1004F15D900F0AFF9222101600DB173
:10556000012028602D2C14BF6FF000404FF0004048
:10557000BDE8F2832B2CE9D1B0F1004FEBD2BDE8AE
:10558000F2834042BDE8F283012804DB421E53103F
:1055900002EB937205E010F1030F04DA421000EB06
:1055A0009272921000E0002210F0030F00D110B9A7
:1055B0000FF2441001E00FF2281030F911008018AA
:1055C00070472DE9F84F04464248401815460090B0
:1055D0001CB94148FCF7F6FC044625624FF46165AE
:1055E0000098DFF8F8A00FF210160FF2F4076FF032
:1055F000020840F26D1902E0009800F56160514622
:10560000B0FBF1F14B1C4FF0070C93FBFCFCCCEB17
:10561000CC0CA3EB0C03A3614B4691FBF3F300E02E
:105620005B1E012B05DB5A1E4FEA620E02EB9E72D7
:1056300004E0434505DA5A1003EB92724FEAA20CDC
:1056400001E04FF0000C13F0030F02D10BB1BE4686
:1056500000E0B646BEF90020944409FB03CC614546
:10566000DEDBA1EB0C0213F0030F6361E26100D1FA
:105670000BB9334600E03B464FF00C0C03F1180E1B
:105680003EF902BD5A45ACF1010CF9DBC4F810C07B
:105690000AFB110033F91C302946D21AB0FBF1F194
:1056A000521CA160E26005FB11003C21B0FBF1F14E
:1056B000C1EB01126160A0EB82002060206A00282B
:1056C00005D5204600F0FEF80128206294DA204635
:1056D000BDE8F28F807EAA833C010020805101004A
:1056E00000001F003C005B0079009800B600D50068
:1056F000F400120131014F0100001F003B005A006D
:1057000078009700B500D400F300110130014E017C
:1057100010B504460120FCF78CFB2046BDE8104084
:1057200000F06AB92DE9F04F85B004461E000D4621
:1057300090461CBF00203060A14601E009F101093C
:1057400099F80000FFF7E4FF0028F7D199F800006E
:105750002D2816BF2B2819F8017B2B27B8F1000F35
:1057600055D4B8F1010F52D0B8F1250F4FDAB8F186
:10577000010F0DDBB8F1100F04BF99F800003028BD
:1057800002BF99F8010040F02000782814D10EE003
:1057900099F80000302818BF4FF00A080CD199F88A
:1057A000010040F02000782804D14FF0100809F1E2
:1057B000020901E04FF00808CDF8109001E009F16E
:1057C000010999F800003028F9D00FF29C0B4FF036
:1057D000000ACDF80C908DF808B00AE09DF808108A
:1057E000CDF804A0401AC0B2009008FB0A0A09F1E3
:1057F000010999F8000000F009F9014642465846AF
:10580000FBF760FD0028E9D10498484503D105B1B4
:105810002C60002025E00FF27801039818F80110A1
:10582000A9EB0000401A14D4012808DA0098BAEB5A
:10583000000004D30199B0FBF8F0884209D000F0D1
:105840003BF8222101600EB1012030604FF0FF3A99
:1058500003E02D2F08BFCAF1000A0DB1C5F8009072
:10586000504605B0BDE8F08F30313233343536372D
:1058700038396162636465666768696A6B6C6D6E0E
:105880006F707172737475767778797A00000000A2
:1058900000002115110E0D0C0B0B0A0A090909094C
:1058A000090808080808080807070707070707077F
:1058B00007070707070000000148FCF783BB00004B
:1058C000740100202DE9F84304464748474FFCF790
:1058D00079FB80464648FCF775FB05463846FCF7E1
:1058E00071FB006808B9FCF791FA3846FCF76AFBCF
:1058F00006464048FCF766FB0746D8F800103868B3
:10590000814220D0007878B93068007810B9FFF76C
:10591000D1FD306000AA30680321FFF7D0FD386068
:10592000017809B1401E3860386800F08DF8060033
:1059300008BF4FF0FF3054D02868FBF797FD2E606A
:105940003868C8F8000000216069FFF71DFE804636
:10595000E169A0682D6801EB410200EBC2076069B4
:1059600040F26D1101FB0080401C072190FBF1F11A
:10597000C1EBC101401A4FF0000900F10E0600E032
:105980006D1D2878FF282BD0606929798842F7DBC4
:10599000E978FFF7F9FDA978A0EB08000818297845
:1059A00071B13218521A072392FBF3F3C3EBC3030E
:1059B000D21A18BFC2F1070210180829B8BFC01FB9
:1059C00000EB4001687800EBC100874208DB2879D2
:1059D000697A88420CBF89F001094FF00009CFE7CE
:1059E0004846BDE8F28300BF78010020880000200F
:1059F0007C0100208C000020A0F10901052901D3C1
:105A0000202801D1012070470020704710B50446BE
:105A10000120FCF70EFA2046BDE8104000F0B2B8B5
:105A200000220AE00378303B0A2B09D202EB820302
:105A300010F8012B02EB4302303A491EF2D501E087
:105A40004FF0FF32104670472DE9F843054615F830
:105A5000018BB8F1000F00F092802846022601E089
:105A6000401C761C4146FBF705FC0028F8D106EBEC
:105A70008600FBF759FC060000F0818000273446C1
:105A80004FF0FF3900E0641D287828280BD104214D
:105A9000681CFFF7C5FFA0F26C77002F6CD4687903
:105AA000292869D1AD1D277102212846FFF7B8FFCB
:105AB000401EE070AD1C0220294600220AE00B784F
:105AC000303B0A2B09D202EB820311F8012B02EBC7
:105AD0004302303A401EF2D500E04A46501EA07004
